{
  "contractName": "Picasso",
  "abi": [
    {
      "inputs": [],
      "stateMutability": "nonpayable",
      "type": "constructor"
    },
    {
      "anonymous": false,
      "inputs": [
        {
          "indexed": true,
          "internalType": "address",
          "name": "owner",
          "type": "address"
        },
        {
          "indexed": true,
          "internalType": "address",
          "name": "approved",
          "type": "address"
        },
        {
          "indexed": true,
          "internalType": "uint256",
          "name": "tokenId",
          "type": "uint256"
        }
      ],
      "name": "Approval",
      "type": "event"
    },
    {
      "anonymous": false,
      "inputs": [
        {
          "indexed": true,
          "internalType": "address",
          "name": "owner",
          "type": "address"
        },
        {
          "indexed": true,
          "internalType": "address",
          "name": "operator",
          "type": "address"
        },
        {
          "indexed": false,
          "internalType": "bool",
          "name": "approved",
          "type": "bool"
        }
      ],
      "name": "ApprovalForAll",
      "type": "event"
    },
    {
      "anonymous": false,
      "inputs": [
        {
          "indexed": true,
          "internalType": "address",
          "name": "from",
          "type": "address"
        },
        {
          "indexed": true,
          "internalType": "address",
          "name": "to",
          "type": "address"
        },
        {
          "indexed": true,
          "internalType": "uint256",
          "name": "tokenId",
          "type": "uint256"
        }
      ],
      "name": "Transfer",
      "type": "event"
    },
    {
      "inputs": [
        {
          "internalType": "address",
          "name": "to",
          "type": "address"
        },
        {
          "internalType": "uint256",
          "name": "tokenId",
          "type": "uint256"
        }
      ],
      "name": "approve",
      "outputs": [],
      "stateMutability": "nonpayable",
      "type": "function"
    },
    {
      "inputs": [
        {
          "internalType": "address",
          "name": "owner",
          "type": "address"
        }
      ],
      "name": "balanceOf",
      "outputs": [
        {
          "internalType": "uint256",
          "name": "",
          "type": "uint256"
        }
      ],
      "stateMutability": "view",
      "type": "function",
      "constant": true
    },
    {
      "inputs": [
        {
          "internalType": "uint256",
          "name": "tokenId",
          "type": "uint256"
        }
      ],
      "name": "getApproved",
      "outputs": [
        {
          "internalType": "address",
          "name": "",
          "type": "address"
        }
      ],
      "stateMutability": "view",
      "type": "function",
      "constant": true
    },
    {
      "inputs": [
        {
          "internalType": "address",
          "name": "owner",
          "type": "address"
        },
        {
          "internalType": "address",
          "name": "operator",
          "type": "address"
        }
      ],
      "name": "isApprovedForAll",
      "outputs": [
        {
          "internalType": "bool",
          "name": "",
          "type": "bool"
        }
      ],
      "stateMutability": "view",
      "type": "function",
      "constant": true
    },
    {
      "inputs": [
        {
          "internalType": "uint256",
          "name": "",
          "type": "uint256"
        }
      ],
      "name": "mintedTokenIds",
      "outputs": [
        {
          "internalType": "uint256",
          "name": "",
          "type": "uint256"
        }
      ],
      "stateMutability": "view",
      "type": "function",
      "constant": true
    },
    {
      "inputs": [],
      "name": "name",
      "outputs": [
        {
          "internalType": "string",
          "name": "",
          "type": "string"
        }
      ],
      "stateMutability": "view",
      "type": "function",
      "constant": true
    },
    {
      "inputs": [
        {
          "internalType": "uint256",
          "name": "tokenId",
          "type": "uint256"
        }
      ],
      "name": "ownerOf",
      "outputs": [
        {
          "internalType": "address",
          "name": "",
          "type": "address"
        }
      ],
      "stateMutability": "view",
      "type": "function",
      "constant": true
    },
    {
      "inputs": [
        {
          "internalType": "address",
          "name": "from",
          "type": "address"
        },
        {
          "internalType": "address",
          "name": "to",
          "type": "address"
        },
        {
          "internalType": "uint256",
          "name": "tokenId",
          "type": "uint256"
        }
      ],
      "name": "safeTransferFrom",
      "outputs": [],
      "stateMutability": "nonpayable",
      "type": "function"
    },
    {
      "inputs": [
        {
          "internalType": "address",
          "name": "from",
          "type": "address"
        },
        {
          "internalType": "address",
          "name": "to",
          "type": "address"
        },
        {
          "internalType": "uint256",
          "name": "tokenId",
          "type": "uint256"
        },
        {
          "internalType": "bytes",
          "name": "_data",
          "type": "bytes"
        }
      ],
      "name": "safeTransferFrom",
      "outputs": [],
      "stateMutability": "nonpayable",
      "type": "function"
    },
    {
      "inputs": [
        {
          "internalType": "address",
          "name": "operator",
          "type": "address"
        },
        {
          "internalType": "bool",
          "name": "approved",
          "type": "bool"
        }
      ],
      "name": "setApprovalForAll",
      "outputs": [],
      "stateMutability": "nonpayable",
      "type": "function"
    },
    {
      "inputs": [
        {
          "internalType": "bytes4",
          "name": "interfaceId",
          "type": "bytes4"
        }
      ],
      "name": "supportsInterface",
      "outputs": [
        {
          "internalType": "bool",
          "name": "",
          "type": "bool"
        }
      ],
      "stateMutability": "view",
      "type": "function",
      "constant": true
    },
    {
      "inputs": [],
      "name": "symbol",
      "outputs": [
        {
          "internalType": "string",
          "name": "",
          "type": "string"
        }
      ],
      "stateMutability": "view",
      "type": "function",
      "constant": true
    },
    {
      "inputs": [
        {
          "internalType": "uint256",
          "name": "tokenId",
          "type": "uint256"
        }
      ],
      "name": "tokenURI",
      "outputs": [
        {
          "internalType": "string",
          "name": "",
          "type": "string"
        }
      ],
      "stateMutability": "view",
      "type": "function",
      "constant": true
    },
    {
      "inputs": [
        {
          "internalType": "address",
          "name": "from",
          "type": "address"
        },
        {
          "internalType": "address",
          "name": "to",
          "type": "address"
        },
        {
          "internalType": "uint256",
          "name": "tokenId",
          "type": "uint256"
        }
      ],
      "name": "transferFrom",
      "outputs": [],
      "stateMutability": "nonpayable",
      "type": "function"
    },
    {
      "inputs": [
        {
          "internalType": "address",
          "name": "recipient",
          "type": "address"
        },
        {
          "internalType": "string",
          "name": "tokenURI",
          "type": "string"
        }
      ],
      "name": "mintNFT",
      "outputs": [
        {
          "internalType": "uint256",
          "name": "",
          "type": "uint256"
        }
      ],
      "stateMutability": "nonpayable",
      "type": "function"
    },
    {
      "inputs": [],
      "name": "totalMinted",
      "outputs": [
        {
          "internalType": "uint256",
          "name": "",
          "type": "uint256"
        }
      ],
      "stateMutability": "view",
      "type": "function",
      "constant": true
    }
  ],
  "bytecode": "0x60806040523480156200001157600080fd5b506040518060400160405280600781526020017f5069636173736f000000000000000000000000000000000000000000000000008152506040518060400160405280600781526020017f5049434153534f00000000000000000000000000000000000000000000000000815250816000908051906020019062000096929190620000b8565b508060019080519060200190620000af929190620000b8565b505050620001cd565b828054620000c69062000197565b90600052602060002090601f016020900481019282620000ea576000855562000136565b82601f106200010557805160ff191683800117855562000136565b8280016001018555821562000136579182015b828111156200013557825182559160200191906001019062000118565b5b50905062000145919062000149565b5090565b5b80821115620001645760008160009055506001016200014a565b5090565b7f4e487b7100000000000000000000000000000000000000000000000000000000600052602260045260246000fd5b60006002820490506001821680620001b057607f821691505b60208210811415620001c757620001c662000168565b5b50919050565b612ce580620001dd6000396000f3fe608060405234801561001057600080fd5b50600436106101005760003560e01c806395d89b4111610097578063b95b63f811610066578063b95b63f8146102ab578063c87b56dd146102db578063e985e9c51461030b578063eacabe141461033b57610100565b806395d89b4114610237578063a22cb46514610255578063a2309ff814610271578063b88d4fde1461028f57610100565b806323b872dd116100d357806323b872dd1461019f57806342842e0e146101bb5780636352211e146101d757806370a082311461020757610100565b806301ffc9a71461010557806306fdde0314610135578063081812fc14610153578063095ea7b314610183575b600080fd5b61011f600480360381019061011a9190611a30565b61036b565b60405161012c9190611a78565b60405180910390f35b61013d61044d565b60405161014a9190611b2c565b60405180910390f35b61016d60048036038101906101689190611b84565b6104df565b60405161017a9190611bf2565b60405180910390f35b61019d60048036038101906101989190611c39565b610564565b005b6101b960048036038101906101b49190611c79565b61067c565b005b6101d560048036038101906101d09190611c79565b6106dc565b005b6101f160048036038101906101ec9190611b84565b6106fc565b6040516101fe9190611bf2565b60405180910390f35b610221600480360381019061021c9190611ccc565b6107ae565b60405161022e9190611d08565b60405180910390f35b61023f610866565b60405161024c9190611b2c565b60405180910390f35b61026f600480360381019061026a9190611d4f565b6108f8565b005b610279610a79565b6040516102869190611d08565b60405180910390f35b6102a960048036038101906102a49190611ec4565b610a86565b005b6102c560048036038101906102c09190611b84565b610ae8565b6040516102d29190611d08565b60405180910390f35b6102f560048036038101906102f09190611b84565b610b0c565b6040516103029190611b2c565b60405180910390f35b61032560048036038101906103209190611f47565b610c5e565b6040516103329190611a78565b60405180910390f35b61035560048036038101906103509190612028565b610cf2565b6040516103629190611d08565b60405180910390f35b60007f80ac58cd000000000000000000000000000000000000000000000000000000007bffffffffffffffffffffffffffffffffffffffffffffffffffffffff1916827bffffffffffffffffffffffffffffffffffffffffffffffffffffffff1916148061043657507f5b5e139f000000000000000000000000000000000000000000000000000000007bffffffffffffffffffffffffffffffffffffffffffffffffffffffff1916827bffffffffffffffffffffffffffffffffffffffffffffffffffffffff1916145b80610446575061044582610dc0565b5b9050919050565b60606000805461045c906120b3565b80601f0160208091040260200160405190810160405280929190818152602001828054610488906120b3565b80156104d55780601f106104aa576101008083540402835291602001916104d5565b820191906000526020600020905b8154815290600101906020018083116104b857829003601f168201915b5050505050905090565b60006104ea82610e2a565b610529576040517f08c379a000000000000000000000000000000000000000000000000000000000815260040161052090612157565b60405180910390fd5b6004600083815260200190815260200160002060009054906101000a900473ffffffffffffffffffffffffffffffffffffffff169050919050565b600061056f826106fc565b90508073ffffffffffffffffffffffffffffffffffffffff168373ffffffffffffffffffffffffffffffffffffffff1614156105e0576040517f08c379a00000000000000000000000000000000000000000000000000000000081526004016105d7906121e9565b60405180910390fd5b8073ffffffffffffffffffffffffffffffffffffffff166105ff610e96565b73ffffffffffffffffffffffffffffffffffffffff16148061062e575061062d81610628610e96565b610c5e565b5b61066d576040517f08c379a00000000000000000000000000000000000000000000000000000000081526004016106649061227b565b60405180910390fd5b6106778383610e9e565b505050565b61068d610687610e96565b82610f57565b6106cc576040517f08c379a00000000000000000000000000000000000000000000000000000000081526004016106c39061230d565b60405180910390fd5b6106d7838383611035565b505050565b6106f783838360405180602001604052806000815250610a86565b505050565b6000806002600084815260200190815260200160002060009054906101000a900473ffffffffffffffffffffffffffffffffffffffff169050600073ffffffffffffffffffffffffffffffffffffffff168173ffffffffffffffffffffffffffffffffffffffff1614156107a5576040517f08c379a000000000000000000000000000000000000000000000000000000000815260040161079c9061239f565b60405180910390fd5b80915050919050565b60008073ffffffffffffffffffffffffffffffffffffffff168273ffffffffffffffffffffffffffffffffffffffff16141561081f576040517f08c379a000000000000000000000000000000000000000000000000000000000815260040161081690612431565b60405180910390fd5b600360008373ffffffffffffffffffffffffffffffffffffffff1673ffffffffffffffffffffffffffffffffffffffff168152602001908152602001600020549050919050565b606060018054610875906120b3565b80601f01602080910402602001604051908101604052809291908181526020018280546108a1906120b3565b80156108ee5780601f106108c3576101008083540402835291602001916108ee565b820191906000526020600020905b8154815290600101906020018083116108d157829003601f168201915b5050505050905090565b610900610e96565b73ffffffffffffffffffffffffffffffffffffffff168273ffffffffffffffffffffffffffffffffffffffff16141561096e576040517f08c379a00000000000000000000000000000000000000000000000000000000081526004016109659061249d565b60405180910390fd5b806005600061097b610e96565b73ffffffffffffffffffffffffffffffffffffffff1673ffffffffffffffffffffffffffffffffffffffff16815260200190815260200160002060008473ffffffffffffffffffffffffffffffffffffffff1673ffffffffffffffffffffffffffffffffffffffff16815260200190815260200160002060006101000a81548160ff0219169083151502179055508173ffffffffffffffffffffffffffffffffffffffff16610a28610e96565b73ffffffffffffffffffffffffffffffffffffffff167f17307eab39ab6107e8899845ad3d59bd9653f200f220920489ca2b5937696c3183604051610a6d9190611a78565b60405180910390a35050565b6000600980549050905090565b610a97610a91610e96565b83610f57565b610ad6576040517f08c379a0000000000000000000000000000000000000000000000000000000008152600401610acd9061230d565b60405180910390fd5b610ae284848484611291565b50505050565b60098181548110610af857600080fd5b906000526020600020016000915090505481565b6060610b1782610e2a565b610b56576040517f08c379a0000000000000000000000000000000000000000000000000000000008152600401610b4d9061252f565b60405180910390fd5b6000600660008481526020019081526020016000208054610b76906120b3565b80601f0160208091040260200160405190810160405280929190818152602001828054610ba2906120b3565b8015610bef5780601f10610bc457610100808354040283529160200191610bef565b820191906000526020600020905b815481529060010190602001808311610bd257829003601f168201915b505050505090506000610c006112ed565b9050600081511415610c16578192505050610c59565b600082511115610c4b578082604051602001610c3392919061258b565b60405160208183030381529060405292505050610c59565b610c5484611304565b925050505b919050565b6000600560008473ffffffffffffffffffffffffffffffffffffffff1673ffffffffffffffffffffffffffffffffffffffff16815260200190815260200160002060008373ffffffffffffffffffffffffffffffffffffffff1673ffffffffffffffffffffffffffffffffffffffff16815260200190815260200160002060009054906101000a900460ff16905092915050565b6000600882604051610d0491906125af565b908152602001604051809103902060009054906101000a900460ff1615610d2a57600080fd5b610d3460076113ab565b6000610d4060076113c1565b9050610d4c84826113cf565b6009819080600181540180825580915050600190039060005260206000200160009091909190915055610d7f818461159d565b6001600884604051610d9191906125af565b908152602001604051809103902060006101000a81548160ff0219169083151502179055508091505092915050565b60007f01ffc9a7000000000000000000000000000000000000000000000000000000007bffffffffffffffffffffffffffffffffffffffffffffffffffffffff1916827bffffffffffffffffffffffffffffffffffffffffffffffffffffffff1916149050919050565b60008073ffffffffffffffffffffffffffffffffffffffff166002600084815260200190815260200160002060009054906101000a900473ffffffffffffffffffffffffffffffffffffffff1673ffffffffffffffffffffffffffffffffffffffff1614159050919050565b600033905090565b816004600083815260200190815260200160002060006101000a81548173ffffffffffffffffffffffffffffffffffffffff021916908373ffffffffffffffffffffffffffffffffffffffff160217905550808273ffffffffffffffffffffffffffffffffffffffff16610f11836106fc565b73ffffffffffffffffffffffffffffffffffffffff167f8c5be1e5ebec7d5bd14f71427d1e84f3dd0314c0f7b2291e5b200ac8c7c3b92560405160405180910390a45050565b6000610f6282610e2a565b610fa1576040517f08c379a0000000000000000000000000000000000000000000000000000000008152600401610f9890612638565b60405180910390fd5b6000610fac836106fc565b90508073ffffffffffffffffffffffffffffffffffffffff168473ffffffffffffffffffffffffffffffffffffffff16148061101b57508373ffffffffffffffffffffffffffffffffffffffff16611003846104df565b73ffffffffffffffffffffffffffffffffffffffff16145b8061102c575061102b8185610c5e565b5b91505092915050565b8273ffffffffffffffffffffffffffffffffffffffff16611055826106fc565b73ffffffffffffffffffffffffffffffffffffffff16146110ab576040517f08c379a00000000000000000000000000000000000000000000000000000000081526004016110a2906126ca565b60405180910390fd5b600073ffffffffffffffffffffffffffffffffffffffff168273ffffffffffffffffffffffffffffffffffffffff16141561111b576040517f08c379a00000000000000000000000000000000000000000000000000000000081526004016111129061275c565b60405180910390fd5b611126838383611611565b611131600082610e9e565b6001600360008573ffffffffffffffffffffffffffffffffffffffff1673ffffffffffffffffffffffffffffffffffffffff168152602001908152602001600020600082825461118191906127ab565b925050819055506001600360008473ffffffffffffffffffffffffffffffffffffffff1673ffffffffffffffffffffffffffffffffffffffff16815260200190815260200160002060008282546111d891906127df565b92505081905550816002600083815260200190815260200160002060006101000a81548173ffffffffffffffffffffffffffffffffffffffff021916908373ffffffffffffffffffffffffffffffffffffffff160217905550808273ffffffffffffffffffffffffffffffffffffffff168473ffffffffffffffffffffffffffffffffffffffff167fddf252ad1be2c89b69c2b068fc378daa952ba7f163c4a11628f55a4df523b3ef60405160405180910390a4505050565b61129c848484611035565b6112a884848484611616565b6112e7576040517f08c379a00000000000000000000000000000000000000000000000000000000081526004016112de906128a7565b60405180910390fd5b50505050565b606060405180602001604052806000815250905090565b606061130f82610e2a565b61134e576040517f08c379a000000000000000000000000000000000000000000000000000000000815260040161134590612939565b60405180910390fd5b60006113586112ed565b9050600081511161137857604051806020016040528060008152506113a3565b80611382846117ad565b60405160200161139392919061258b565b6040516020818303038152906040525b915050919050565b6001816000016000828254019250508190555050565b600081600001549050919050565b600073ffffffffffffffffffffffffffffffffffffffff168273ffffffffffffffffffffffffffffffffffffffff16141561143f576040517f08c379a0000000000000000000000000000000000000000000000000000000008152600401611436906129a5565b60405180910390fd5b61144881610e2a565b15611488576040517f08c379a000000000000000000000000000000000000000000000000000000000815260040161147f90612a11565b60405180910390fd5b61149460008383611611565b6001600360008473ffffffffffffffffffffffffffffffffffffffff1673ffffffffffffffffffffffffffffffffffffffff16815260200190815260200160002060008282546114e491906127df565b92505081905550816002600083815260200190815260200160002060006101000a81548173ffffffffffffffffffffffffffffffffffffffff021916908373ffffffffffffffffffffffffffffffffffffffff160217905550808273ffffffffffffffffffffffffffffffffffffffff16600073ffffffffffffffffffffffffffffffffffffffff167fddf252ad1be2c89b69c2b068fc378daa952ba7f163c4a11628f55a4df523b3ef60405160405180910390a45050565b6115a682610e2a565b6115e5576040517f08c379a00000000000000000000000000000000000000000000000000000000081526004016115dc90612aa3565b60405180910390fd5b8060066000848152602001908152602001600020908051906020019061160c929190611921565b505050565b505050565b60006116378473ffffffffffffffffffffffffffffffffffffffff1661190e565b156117a0578373ffffffffffffffffffffffffffffffffffffffff1663150b7a02611660610e96565b8786866040518563ffffffff1660e01b81526004016116829493929190612b18565b602060405180830381600087803b15801561169c57600080fd5b505af19250505080156116cd57506040513d601f19601f820116820180604052508101906116ca9190612b79565b60015b611750573d80600081146116fd576040519150601f19603f3d011682016040523d82523d6000602084013e611702565b606091505b50600081511415611748576040517f08c379a000000000000000000000000000000000000000000000000000000000815260040161173f906128a7565b60405180910390fd5b805181602001fd5b63150b7a0260e01b7bffffffffffffffffffffffffffffffffffffffffffffffffffffffff1916817bffffffffffffffffffffffffffffffffffffffffffffffffffffffff1916149150506117a5565b600190505b949350505050565b606060008214156117f5576040518060400160405280600181526020017f30000000000000000000000000000000000000000000000000000000000000008152509050611909565b600082905060005b6000821461182757808061181090612ba6565b915050600a826118209190612c1e565b91506117fd565b60008167ffffffffffffffff81111561184357611842611d99565b5b6040519080825280601f01601f1916602001820160405280156118755781602001600182028036833780820191505090505b5090505b600085146119025760018261188e91906127ab565b9150600a8561189d9190612c4f565b60306118a991906127df565b60f81b8183815181106118bf576118be612c80565b5b60200101907effffffffffffffffffffffffffffffffffffffffffffffffffffffffffffff1916908160001a905350600a856118fb9190612c1e565b9450611879565b8093505050505b919050565b600080823b905060008111915050919050565b82805461192d906120b3565b90600052602060002090601f01602090048101928261194f5760008555611996565b82601f1061196857805160ff1916838001178555611996565b82800160010185558215611996579182015b8281111561199557825182559160200191906001019061197a565b5b5090506119a391906119a7565b5090565b5b808211156119c05760008160009055506001016119a8565b5090565b6000604051905090565b600080fd5b600080fd5b60007fffffffff0000000000000000000000000000000000000000000000000000000082169050919050565b611a0d816119d8565b8114611a1857600080fd5b50565b600081359050611a2a81611a04565b92915050565b600060208284031215611a4657611a456119ce565b5b6000611a5484828501611a1b565b91505092915050565b60008115159050919050565b611a7281611a5d565b82525050565b6000602082019050611a8d6000830184611a69565b92915050565b600081519050919050565b600082825260208201905092915050565b60005b83811015611acd578082015181840152602081019050611ab2565b83811115611adc576000848401525b50505050565b6000601f19601f8301169050919050565b6000611afe82611a93565b611b088185611a9e565b9350611b18818560208601611aaf565b611b2181611ae2565b840191505092915050565b60006020820190508181036000830152611b468184611af3565b905092915050565b6000819050919050565b611b6181611b4e565b8114611b6c57600080fd5b50565b600081359050611b7e81611b58565b92915050565b600060208284031215611b9a57611b996119ce565b5b6000611ba884828501611b6f565b91505092915050565b600073ffffffffffffffffffffffffffffffffffffffff82169050919050565b6000611bdc82611bb1565b9050919050565b611bec81611bd1565b82525050565b6000602082019050611c076000830184611be3565b92915050565b611c1681611bd1565b8114611c2157600080fd5b50565b600081359050611c3381611c0d565b92915050565b60008060408385031215611c5057611c4f6119ce565b5b6000611c5e85828601611c24565b9250506020611c6f85828601611b6f565b9150509250929050565b600080600060608486031215611c9257611c916119ce565b5b6000611ca086828701611c24565b9350506020611cb186828701611c24565b9250506040611cc286828701611b6f565b9150509250925092565b600060208284031215611ce257611ce16119ce565b5b6000611cf084828501611c24565b91505092915050565b611d0281611b4e565b82525050565b6000602082019050611d1d6000830184611cf9565b92915050565b611d2c81611a5d565b8114611d3757600080fd5b50565b600081359050611d4981611d23565b92915050565b60008060408385031215611d6657611d656119ce565b5b6000611d7485828601611c24565b9250506020611d8585828601611d3a565b9150509250929050565b600080fd5b600080fd5b7f4e487b7100000000000000000000000000000000000000000000000000000000600052604160045260246000fd5b611dd182611ae2565b810181811067ffffffffffffffff82111715611df057611def611d99565b5b80604052505050565b6000611e036119c4565b9050611e0f8282611dc8565b919050565b600067ffffffffffffffff821115611e2f57611e2e611d99565b5b611e3882611ae2565b9050602081019050919050565b82818337600083830152505050565b6000611e67611e6284611e14565b611df9565b905082815260208101848484011115611e8357611e82611d94565b5b611e8e848285611e45565b509392505050565b600082601f830112611eab57611eaa611d8f565b5b8135611ebb848260208601611e54565b91505092915050565b60008060008060808587031215611ede57611edd6119ce565b5b6000611eec87828801611c24565b9450506020611efd87828801611c24565b9350506040611f0e87828801611b6f565b925050606085013567ffffffffffffffff811115611f2f57611f2e6119d3565b5b611f3b87828801611e96565b91505092959194509250565b60008060408385031215611f5e57611f5d6119ce565b5b6000611f6c85828601611c24565b9250506020611f7d85828601611c24565b9150509250929050565b600067ffffffffffffffff821115611fa257611fa1611d99565b5b611fab82611ae2565b9050602081019050919050565b6000611fcb611fc684611f87565b611df9565b905082815260208101848484011115611fe757611fe6611d94565b5b611ff2848285611e45565b509392505050565b600082601f83011261200f5761200e611d8f565b5b813561201f848260208601611fb8565b91505092915050565b6000806040838503121561203f5761203e6119ce565b5b600061204d85828601611c24565b925050602083013567ffffffffffffffff81111561206e5761206d6119d3565b5b61207a85828601611ffa565b9150509250929050565b7f4e487b7100000000000000000000000000000000000000000000000000000000600052602260045260246000fd5b600060028204905060018216806120cb57607f821691505b602082108114156120df576120de612084565b5b50919050565b7f4552433732313a20617070726f76656420717565727920666f72206e6f6e657860008201527f697374656e7420746f6b656e0000000000000000000000000000000000000000602082015250565b6000612141602c83611a9e565b915061214c826120e5565b604082019050919050565b6000602082019050818103600083015261217081612134565b9050919050565b7f4552433732313a20617070726f76616c20746f2063757272656e74206f776e6560008201527f7200000000000000000000000000000000000000000000000000000000000000602082015250565b60006121d3602183611a9e565b91506121de82612177565b604082019050919050565b60006020820190508181036000830152612202816121c6565b9050919050565b7f4552433732313a20617070726f76652063616c6c6572206973206e6f74206f7760008201527f6e6572206e6f7220617070726f76656420666f7220616c6c0000000000000000602082015250565b6000612265603883611a9e565b915061227082612209565b604082019050919050565b6000602082019050818103600083015261229481612258565b9050919050565b7f4552433732313a207472616e736665722063616c6c6572206973206e6f74206f60008201527f776e6572206e6f7220617070726f766564000000000000000000000000000000602082015250565b60006122f7603183611a9e565b91506123028261229b565b604082019050919050565b60006020820190508181036000830152612326816122ea565b9050919050565b7f4552433732313a206f776e657220717565727920666f72206e6f6e657869737460008201527f656e7420746f6b656e0000000000000000000000000000000000000000000000602082015250565b6000612389602983611a9e565b91506123948261232d565b604082019050919050565b600060208201905081810360008301526123b88161237c565b9050919050565b7f4552433732313a2062616c616e636520717565727920666f7220746865207a6560008201527f726f206164647265737300000000000000000000000000000000000000000000602082015250565b600061241b602a83611a9e565b9150612426826123bf565b604082019050919050565b6000602082019050818103600083015261244a8161240e565b9050919050565b7f4552433732313a20617070726f766520746f2063616c6c657200000000000000600082015250565b6000612487601983611a9e565b915061249282612451565b602082019050919050565b600060208201905081810360008301526124b68161247a565b9050919050565b7f45524337323155524953746f726167653a2055524920717565727920666f722060008201527f6e6f6e6578697374656e7420746f6b656e000000000000000000000000000000602082015250565b6000612519603183611a9e565b9150612524826124bd565b604082019050919050565b600060208201905081810360008301526125488161250c565b9050919050565b600081905092915050565b600061256582611a93565b61256f818561254f565b935061257f818560208601611aaf565b80840191505092915050565b6000612597828561255a565b91506125a3828461255a565b91508190509392505050565b60006125bb828461255a565b915081905092915050565b7f4552433732313a206f70657261746f7220717565727920666f72206e6f6e657860008201527f697374656e7420746f6b656e0000000000000000000000000000000000000000602082015250565b6000612622602c83611a9e565b915061262d826125c6565b604082019050919050565b6000602082019050818103600083015261265181612615565b9050919050565b7f4552433732313a207472616e73666572206f6620746f6b656e2074686174206960008201527f73206e6f74206f776e0000000000000000000000000000000000000000000000602082015250565b60006126b4602983611a9e565b91506126bf82612658565b604082019050919050565b600060208201905081810360008301526126e3816126a7565b9050919050565b7f4552433732313a207472616e7366657220746f20746865207a65726f2061646460008201527f7265737300000000000000000000000000000000000000000000000000000000602082015250565b6000612746602483611a9e565b9150612751826126ea565b604082019050919050565b6000602082019050818103600083015261277581612739565b9050919050565b7f4e487b7100000000000000000000000000000000000000000000000000000000600052601160045260246000fd5b60006127b682611b4e565b91506127c183611b4e565b9250828210156127d4576127d361277c565b5b828203905092915050565b60006127ea82611b4e565b91506127f583611b4e565b9250827fffffffffffffffffffffffffffffffffffffffffffffffffffffffffffffffff0382111561282a5761282961277c565b5b828201905092915050565b7f4552433732313a207472616e7366657220746f206e6f6e20455243373231526560008201527f63656976657220696d706c656d656e7465720000000000000000000000000000602082015250565b6000612891603283611a9e565b915061289c82612835565b604082019050919050565b600060208201905081810360008301526128c081612884565b9050919050565b7f4552433732314d657461646174613a2055524920717565727920666f72206e6f60008201527f6e6578697374656e7420746f6b656e0000000000000000000000000000000000602082015250565b6000612923602f83611a9e565b915061292e826128c7565b604082019050919050565b6000602082019050818103600083015261295281612916565b9050919050565b7f4552433732313a206d696e7420746f20746865207a65726f2061646472657373600082015250565b600061298f602083611a9e565b915061299a82612959565b602082019050919050565b600060208201905081810360008301526129be81612982565b9050919050565b7f4552433732313a20746f6b656e20616c7265616479206d696e74656400000000600082015250565b60006129fb601c83611a9e565b9150612a06826129c5565b602082019050919050565b60006020820190508181036000830152612a2a816129ee565b9050919050565b7f45524337323155524953746f726167653a2055524920736574206f66206e6f6e60008201527f6578697374656e7420746f6b656e000000000000000000000000000000000000602082015250565b6000612a8d602e83611a9e565b9150612a9882612a31565b604082019050919050565b60006020820190508181036000830152612abc81612a80565b9050919050565b600081519050919050565b600082825260208201905092915050565b6000612aea82612ac3565b612af48185612ace565b9350612b04818560208601611aaf565b612b0d81611ae2565b840191505092915050565b6000608082019050612b2d6000830187611be3565b612b3a6020830186611be3565b612b476040830185611cf9565b8181036060830152612b598184612adf565b905095945050505050565b600081519050612b7381611a04565b92915050565b600060208284031215612b8f57612b8e6119ce565b5b6000612b9d84828501612b64565b91505092915050565b6000612bb182611b4e565b91507fffffffffffffffffffffffffffffffffffffffffffffffffffffffffffffffff821415612be457612be361277c565b5b600182019050919050565b7f4e487b7100000000000000000000000000000000000000000000000000000000600052601260045260246000fd5b6000612c2982611b4e565b9150612c3483611b4e565b925082612c4457612c43612bef565b5b828204905092915050565b6000612c5a82611b4e565b9150612c6583611b4e565b925082612c7557612c74612bef565b5b828206905092915050565b7f4e487b7100000000000000000000000000000000000000000000000000000000600052603260045260246000fdfea2646970667358221220f8b7aeff14aa6d916be215414db9b0b15ece083f397a40e7d1066b0ba274e1e564736f6c63430008090033",
  "immutableReferences": {},
  "source": "// Contract based on https://docs.openzeppelin.com/contracts/4.x/erc721\r\n// SPDX-License-Identifier: MIT\r\n\r\npragma solidity ^0.8.0;\r\n\r\nimport \"@openzeppelin/contracts/token/ERC721/extensions/ERC721URIStorage.sol\";\r\nimport \"@openzeppelin/contracts/utils/Counters.sol\";\r\n\r\ncontract Picasso is ERC721URIStorage {\r\n    using Counters for Counters.Counter;\r\n    Counters.Counter private _tokenCounter;\r\n\r\n    mapping(string => bool) _imageExists;\r\n    uint256[] public mintedTokenIds;\r\n\r\n    constructor() ERC721(\"Picasso\", \"PICASSO\") {\r\n\r\n    }\r\n\r\n    function mintNFT(address recipient, string memory tokenURI)\r\n    public\r\n    returns (uint256)\r\n    {\r\n        // Make sure the tokenURI has not been minted\r\n        require(!_imageExists[tokenURI]);\r\n        \r\n        // Increament id\r\n        _tokenCounter.increment();\r\n        uint256 newItemId = _tokenCounter.current();\r\n\r\n        // Mint\r\n        _mint(recipient, newItemId);\r\n        mintedTokenIds.push(newItemId);\r\n        _setTokenURI(newItemId, tokenURI);\r\n\r\n        // Track minted tokenURI\r\n        _imageExists[tokenURI] = true;\r\n\r\n        return newItemId;\r\n    }\r\n\r\n    function totalMinted() public view returns (uint256) {\r\n        return mintedTokenIds.length;\r\n    }\r\n}",
  "sourcePath": "C:\\Users\\samno\\picasso1\\src\\contracts\\Picasso.sol",
  "compiler": {
    "name": "solc",
    "version": "0.8.9+commit.e5eed63a.Emscripten.clang"
  },
  "schemaVersion": "3.4.3",
  "updatedAt": "2021-10-13T21:52:29.402Z",
  "networkType": "ethereum",
  "devdoc": {
    "kind": "dev",
    "methods": {
      "approve(address,uint256)": {
        "details": "See {IERC721-approve}."
      },
      "balanceOf(address)": {
        "details": "See {IERC721-balanceOf}."
      },
      "getApproved(uint256)": {
        "details": "See {IERC721-getApproved}."
      },
      "isApprovedForAll(address,address)": {
        "details": "See {IERC721-isApprovedForAll}."
      },
      "name()": {
        "details": "See {IERC721Metadata-name}."
      },
      "ownerOf(uint256)": {
        "details": "See {IERC721-ownerOf}."
      },
      "safeTransferFrom(address,address,uint256)": {
        "details": "See {IERC721-safeTransferFrom}."
      },
      "safeTransferFrom(address,address,uint256,bytes)": {
        "details": "See {IERC721-safeTransferFrom}."
      },
      "setApprovalForAll(address,bool)": {
        "details": "See {IERC721-setApprovalForAll}."
      },
      "supportsInterface(bytes4)": {
        "details": "See {IERC165-supportsInterface}."
      },
      "symbol()": {
        "details": "See {IERC721Metadata-symbol}."
      },
      "tokenURI(uint256)": {
        "details": "See {IERC721Metadata-tokenURI}."
      },
      "transferFrom(address,address,uint256)": {
        "details": "See {IERC721-transferFrom}."
      }
    },
    "version": 1
  },
  "userdoc": {
    "kind": "user",
    "methods": {},
    "version": 1
  }
}