{
  "contractName": "Picasso",
  "abi": [
    {
      "inputs": [],
      "stateMutability": "nonpayable",
      "type": "constructor"
    },
    {
      "anonymous": false,
      "inputs": [
        {
          "indexed": true,
          "internalType": "address",
          "name": "owner",
          "type": "address"
        },
        {
          "indexed": true,
          "internalType": "address",
          "name": "approved",
          "type": "address"
        },
        {
          "indexed": true,
          "internalType": "uint256",
          "name": "tokenId",
          "type": "uint256"
        }
      ],
      "name": "Approval",
      "type": "event"
    },
    {
      "anonymous": false,
      "inputs": [
        {
          "indexed": true,
          "internalType": "address",
          "name": "owner",
          "type": "address"
        },
        {
          "indexed": true,
          "internalType": "address",
          "name": "operator",
          "type": "address"
        },
        {
          "indexed": false,
          "internalType": "bool",
          "name": "approved",
          "type": "bool"
        }
      ],
      "name": "ApprovalForAll",
      "type": "event"
    },
    {
      "anonymous": false,
      "inputs": [
        {
          "indexed": true,
          "internalType": "address",
          "name": "from",
          "type": "address"
        },
        {
          "indexed": true,
          "internalType": "address",
          "name": "to",
          "type": "address"
        },
        {
          "indexed": true,
          "internalType": "uint256",
          "name": "tokenId",
          "type": "uint256"
        }
      ],
      "name": "Transfer",
      "type": "event"
    },
    {
      "inputs": [
        {
          "internalType": "address",
          "name": "to",
          "type": "address"
        },
        {
          "internalType": "uint256",
          "name": "tokenId",
          "type": "uint256"
        }
      ],
      "name": "approve",
      "outputs": [],
      "stateMutability": "nonpayable",
      "type": "function"
    },
    {
      "inputs": [
        {
          "internalType": "address",
          "name": "owner",
          "type": "address"
        }
      ],
      "name": "balanceOf",
      "outputs": [
        {
          "internalType": "uint256",
          "name": "",
          "type": "uint256"
        }
      ],
      "stateMutability": "view",
      "type": "function"
    },
    {
      "inputs": [
        {
          "internalType": "uint256",
          "name": "tokenId",
          "type": "uint256"
        }
      ],
      "name": "getApproved",
      "outputs": [
        {
          "internalType": "address",
          "name": "",
          "type": "address"
        }
      ],
      "stateMutability": "view",
      "type": "function"
    },
    {
      "inputs": [
        {
          "internalType": "uint256",
          "name": "",
          "type": "uint256"
        }
      ],
      "name": "imageUrls",
      "outputs": [
        {
          "internalType": "string",
          "name": "",
          "type": "string"
        }
      ],
      "stateMutability": "view",
      "type": "function"
    },
    {
      "inputs": [
        {
          "internalType": "address",
          "name": "owner",
          "type": "address"
        },
        {
          "internalType": "address",
          "name": "operator",
          "type": "address"
        }
      ],
      "name": "isApprovedForAll",
      "outputs": [
        {
          "internalType": "bool",
          "name": "",
          "type": "bool"
        }
      ],
      "stateMutability": "view",
      "type": "function"
    },
    {
      "inputs": [],
      "name": "name",
      "outputs": [
        {
          "internalType": "string",
          "name": "",
          "type": "string"
        }
      ],
      "stateMutability": "view",
      "type": "function"
    },
    {
      "inputs": [
        {
          "internalType": "uint256",
          "name": "tokenId",
          "type": "uint256"
        }
      ],
      "name": "ownerOf",
      "outputs": [
        {
          "internalType": "address",
          "name": "",
          "type": "address"
        }
      ],
      "stateMutability": "view",
      "type": "function"
    },
    {
      "inputs": [
        {
          "internalType": "address",
          "name": "from",
          "type": "address"
        },
        {
          "internalType": "address",
          "name": "to",
          "type": "address"
        },
        {
          "internalType": "uint256",
          "name": "tokenId",
          "type": "uint256"
        }
      ],
      "name": "safeTransferFrom",
      "outputs": [],
      "stateMutability": "nonpayable",
      "type": "function"
    },
    {
      "inputs": [
        {
          "internalType": "address",
          "name": "from",
          "type": "address"
        },
        {
          "internalType": "address",
          "name": "to",
          "type": "address"
        },
        {
          "internalType": "uint256",
          "name": "tokenId",
          "type": "uint256"
        },
        {
          "internalType": "bytes",
          "name": "_data",
          "type": "bytes"
        }
      ],
      "name": "safeTransferFrom",
      "outputs": [],
      "stateMutability": "nonpayable",
      "type": "function"
    },
    {
      "inputs": [
        {
          "internalType": "address",
          "name": "operator",
          "type": "address"
        },
        {
          "internalType": "bool",
          "name": "approved",
          "type": "bool"
        }
      ],
      "name": "setApprovalForAll",
      "outputs": [],
      "stateMutability": "nonpayable",
      "type": "function"
    },
    {
      "inputs": [
        {
          "internalType": "bytes4",
          "name": "interfaceId",
          "type": "bytes4"
        }
      ],
      "name": "supportsInterface",
      "outputs": [
        {
          "internalType": "bool",
          "name": "",
          "type": "bool"
        }
      ],
      "stateMutability": "view",
      "type": "function"
    },
    {
      "inputs": [],
      "name": "symbol",
      "outputs": [
        {
          "internalType": "string",
          "name": "",
          "type": "string"
        }
      ],
      "stateMutability": "view",
      "type": "function"
    },
    {
      "inputs": [
        {
          "internalType": "uint256",
          "name": "tokenId",
          "type": "uint256"
        }
      ],
      "name": "tokenURI",
      "outputs": [
        {
          "internalType": "string",
          "name": "",
          "type": "string"
        }
      ],
      "stateMutability": "view",
      "type": "function"
    },
    {
      "inputs": [
        {
          "internalType": "address",
          "name": "from",
          "type": "address"
        },
        {
          "internalType": "address",
          "name": "to",
          "type": "address"
        },
        {
          "internalType": "uint256",
          "name": "tokenId",
          "type": "uint256"
        }
      ],
      "name": "transferFrom",
      "outputs": [],
      "stateMutability": "nonpayable",
      "type": "function"
    },
    {
      "inputs": [
        {
          "internalType": "address",
          "name": "recipient",
          "type": "address"
        },
        {
          "internalType": "string",
          "name": "tokenURI",
          "type": "string"
        }
      ],
      "name": "mintNFT",
      "outputs": [
        {
          "internalType": "uint256",
          "name": "",
          "type": "uint256"
        }
      ],
      "stateMutability": "nonpayable",
      "type": "function"
    }
  ],
  "bytecode": "0x60806040523480156200001157600080fd5b506040518060400160405280600781526020017f5069636173736f000000000000000000000000000000000000000000000000008152506040518060400160405280600781526020017f5049434153534f00000000000000000000000000000000000000000000000000815250816000908051906020019062000096929190620000b8565b508060019080519060200190620000af929190620000b8565b505050620001cd565b828054620000c69062000197565b90600052602060002090601f016020900481019282620000ea576000855562000136565b82601f106200010557805160ff191683800117855562000136565b8280016001018555821562000136579182015b828111156200013557825182559160200191906001019062000118565b5b50905062000145919062000149565b5090565b5b80821115620001645760008160009055506001016200014a565b5090565b7f4e487b7100000000000000000000000000000000000000000000000000000000600052602260045260246000fd5b60006002820490506001821680620001b057607f821691505b60208210811415620001c757620001c662000168565b5b50919050565b612c8a80620001dd6000396000f3fe608060405234801561001057600080fd5b50600436106100f55760003560e01c80636352211e11610097578063b88d4fde11610066578063b88d4fde14610296578063c87b56dd146102b2578063e985e9c5146102e2578063eacabe1414610312576100f5565b80636352211e146101fc57806370a082311461022c57806395d89b411461025c578063a22cb4651461027a576100f5565b8063095ea7b3116100d3578063095ea7b31461017857806323b872dd1461019457806342842e0e146101b05780635f528ee8146101cc576100f5565b806301ffc9a7146100fa57806306fdde031461012a578063081812fc14610148575b600080fd5b610114600480360381019061010f91906119ec565b610342565b6040516101219190611a34565b60405180910390f35b610132610424565b60405161013f9190611ae8565b60405180910390f35b610162600480360381019061015d9190611b40565b6104b6565b60405161016f9190611bae565b60405180910390f35b610192600480360381019061018d9190611bf5565b61053b565b005b6101ae60048036038101906101a99190611c35565b610653565b005b6101ca60048036038101906101c59190611c35565b6106b3565b005b6101e660048036038101906101e19190611b40565b6106d3565b6040516101f39190611ae8565b60405180910390f35b61021660048036038101906102119190611b40565b61077f565b6040516102239190611bae565b60405180910390f35b61024660048036038101906102419190611c88565b610831565b6040516102539190611cc4565b60405180910390f35b6102646108e9565b6040516102719190611ae8565b60405180910390f35b610294600480360381019061028f9190611d0b565b61097b565b005b6102b060048036038101906102ab9190611e80565b610afc565b005b6102cc60048036038101906102c79190611b40565b610b5e565b6040516102d99190611ae8565b60405180910390f35b6102fc60048036038101906102f79190611f03565b610cb0565b6040516103099190611a34565b60405180910390f35b61032c60048036038101906103279190611fe4565b610d44565b6040516103399190611cc4565b60405180910390f35b60007f80ac58cd000000000000000000000000000000000000000000000000000000007bffffffffffffffffffffffffffffffffffffffffffffffffffffffff1916827bffffffffffffffffffffffffffffffffffffffffffffffffffffffff1916148061040d57507f5b5e139f000000000000000000000000000000000000000000000000000000007bffffffffffffffffffffffffffffffffffffffffffffffffffffffff1916827bffffffffffffffffffffffffffffffffffffffffffffffffffffffff1916145b8061041d575061041c82610d7c565b5b9050919050565b6060600080546104339061206f565b80601f016020809104026020016040519081016040528092919081815260200182805461045f9061206f565b80156104ac5780601f10610481576101008083540402835291602001916104ac565b820191906000526020600020905b81548152906001019060200180831161048f57829003601f168201915b5050505050905090565b60006104c182610de6565b610500576040517f08c379a00000000000000000000000000000000000000000000000000000000081526004016104f790612113565b60405180910390fd5b6004600083815260200190815260200160002060009054906101000a900473ffffffffffffffffffffffffffffffffffffffff169050919050565b60006105468261077f565b90508073ffffffffffffffffffffffffffffffffffffffff168373ffffffffffffffffffffffffffffffffffffffff1614156105b7576040517f08c379a00000000000000000000000000000000000000000000000000000000081526004016105ae906121a5565b60405180910390fd5b8073ffffffffffffffffffffffffffffffffffffffff166105d6610e52565b73ffffffffffffffffffffffffffffffffffffffff1614806106055750610604816105ff610e52565b610cb0565b5b610644576040517f08c379a000000000000000000000000000000000000000000000000000000000815260040161063b90612237565b60405180910390fd5b61064e8383610e5a565b505050565b61066461065e610e52565b82610f13565b6106a3576040517f08c379a000000000000000000000000000000000000000000000000000000000815260040161069a906122c9565b60405180910390fd5b6106ae838383610ff1565b505050565b6106ce83838360405180602001604052806000815250610afc565b505050565b600881815481106106e357600080fd5b9060005260206000200160009150905080546106fe9061206f565b80601f016020809104026020016040519081016040528092919081815260200182805461072a9061206f565b80156107775780601f1061074c57610100808354040283529160200191610777565b820191906000526020600020905b81548152906001019060200180831161075a57829003601f168201915b505050505081565b6000806002600084815260200190815260200160002060009054906101000a900473ffffffffffffffffffffffffffffffffffffffff169050600073ffffffffffffffffffffffffffffffffffffffff168173ffffffffffffffffffffffffffffffffffffffff161415610828576040517f08c379a000000000000000000000000000000000000000000000000000000000815260040161081f9061235b565b60405180910390fd5b80915050919050565b60008073ffffffffffffffffffffffffffffffffffffffff168273ffffffffffffffffffffffffffffffffffffffff1614156108a2576040517f08c379a0000000000000000000000000000000000000000000000000000000008152600401610899906123ed565b60405180910390fd5b600360008373ffffffffffffffffffffffffffffffffffffffff1673ffffffffffffffffffffffffffffffffffffffff168152602001908152602001600020549050919050565b6060600180546108f89061206f565b80601f01602080910402602001604051908101604052809291908181526020018280546109249061206f565b80156109715780601f1061094657610100808354040283529160200191610971565b820191906000526020600020905b81548152906001019060200180831161095457829003601f168201915b5050505050905090565b610983610e52565b73ffffffffffffffffffffffffffffffffffffffff168273ffffffffffffffffffffffffffffffffffffffff1614156109f1576040517f08c379a00000000000000000000000000000000000000000000000000000000081526004016109e890612459565b60405180910390fd5b80600560006109fe610e52565b73ffffffffffffffffffffffffffffffffffffffff1673ffffffffffffffffffffffffffffffffffffffff16815260200190815260200160002060008473ffffffffffffffffffffffffffffffffffffffff1673ffffffffffffffffffffffffffffffffffffffff16815260200190815260200160002060006101000a81548160ff0219169083151502179055508173ffffffffffffffffffffffffffffffffffffffff16610aab610e52565b73ffffffffffffffffffffffffffffffffffffffff167f17307eab39ab6107e8899845ad3d59bd9653f200f220920489ca2b5937696c3183604051610af09190611a34565b60405180910390a35050565b610b0d610b07610e52565b83610f13565b610b4c576040517f08c379a0000000000000000000000000000000000000000000000000000000008152600401610b43906122c9565b60405180910390fd5b610b588484848461124d565b50505050565b6060610b6982610de6565b610ba8576040517f08c379a0000000000000000000000000000000000000000000000000000000008152600401610b9f906124eb565b60405180910390fd5b6000600660008481526020019081526020016000208054610bc89061206f565b80601f0160208091040260200160405190810160405280929190818152602001828054610bf49061206f565b8015610c415780601f10610c1657610100808354040283529160200191610c41565b820191906000526020600020905b815481529060010190602001808311610c2457829003601f168201915b505050505090506000610c526112a9565b9050600081511415610c68578192505050610cab565b600082511115610c9d578082604051602001610c85929190612547565b60405160208183030381529060405292505050610cab565b610ca6846112c0565b925050505b919050565b6000600560008473ffffffffffffffffffffffffffffffffffffffff1673ffffffffffffffffffffffffffffffffffffffff16815260200190815260200160002060008373ffffffffffffffffffffffffffffffffffffffff1673ffffffffffffffffffffffffffffffffffffffff16815260200190815260200160002060009054906101000a900460ff16905092915050565b6000610d506007611367565b6000610d5c600761137d565b9050610d68848261138b565b610d728184611559565b8091505092915050565b60007f01ffc9a7000000000000000000000000000000000000000000000000000000007bffffffffffffffffffffffffffffffffffffffffffffffffffffffff1916827bffffffffffffffffffffffffffffffffffffffffffffffffffffffff1916149050919050565b60008073ffffffffffffffffffffffffffffffffffffffff166002600084815260200190815260200160002060009054906101000a900473ffffffffffffffffffffffffffffffffffffffff1673ffffffffffffffffffffffffffffffffffffffff1614159050919050565b600033905090565b816004600083815260200190815260200160002060006101000a81548173ffffffffffffffffffffffffffffffffffffffff021916908373ffffffffffffffffffffffffffffffffffffffff160217905550808273ffffffffffffffffffffffffffffffffffffffff16610ecd8361077f565b73ffffffffffffffffffffffffffffffffffffffff167f8c5be1e5ebec7d5bd14f71427d1e84f3dd0314c0f7b2291e5b200ac8c7c3b92560405160405180910390a45050565b6000610f1e82610de6565b610f5d576040517f08c379a0000000000000000000000000000000000000000000000000000000008152600401610f54906125dd565b60405180910390fd5b6000610f688361077f565b90508073ffffffffffffffffffffffffffffffffffffffff168473ffffffffffffffffffffffffffffffffffffffff161480610fd757508373ffffffffffffffffffffffffffffffffffffffff16610fbf846104b6565b73ffffffffffffffffffffffffffffffffffffffff16145b80610fe85750610fe78185610cb0565b5b91505092915050565b8273ffffffffffffffffffffffffffffffffffffffff166110118261077f565b73ffffffffffffffffffffffffffffffffffffffff1614611067576040517f08c379a000000000000000000000000000000000000000000000000000000000815260040161105e9061266f565b60405180910390fd5b600073ffffffffffffffffffffffffffffffffffffffff168273ffffffffffffffffffffffffffffffffffffffff1614156110d7576040517f08c379a00000000000000000000000000000000000000000000000000000000081526004016110ce90612701565b60405180910390fd5b6110e28383836115cd565b6110ed600082610e5a565b6001600360008573ffffffffffffffffffffffffffffffffffffffff1673ffffffffffffffffffffffffffffffffffffffff168152602001908152602001600020600082825461113d9190612750565b925050819055506001600360008473ffffffffffffffffffffffffffffffffffffffff1673ffffffffffffffffffffffffffffffffffffffff16815260200190815260200160002060008282546111949190612784565b92505081905550816002600083815260200190815260200160002060006101000a81548173ffffffffffffffffffffffffffffffffffffffff021916908373ffffffffffffffffffffffffffffffffffffffff160217905550808273ffffffffffffffffffffffffffffffffffffffff168473ffffffffffffffffffffffffffffffffffffffff167fddf252ad1be2c89b69c2b068fc378daa952ba7f163c4a11628f55a4df523b3ef60405160405180910390a4505050565b611258848484610ff1565b611264848484846115d2565b6112a3576040517f08c379a000000000000000000000000000000000000000000000000000000000815260040161129a9061284c565b60405180910390fd5b50505050565b606060405180602001604052806000815250905090565b60606112cb82610de6565b61130a576040517f08c379a0000000000000000000000000000000000000000000000000000000008152600401611301906128de565b60405180910390fd5b60006113146112a9565b90506000815111611334576040518060200160405280600081525061135f565b8061133e84611769565b60405160200161134f929190612547565b6040516020818303038152906040525b915050919050565b6001816000016000828254019250508190555050565b600081600001549050919050565b600073ffffffffffffffffffffffffffffffffffffffff168273ffffffffffffffffffffffffffffffffffffffff1614156113fb576040517f08c379a00000000000000000000000000000000000000000000000000000000081526004016113f29061294a565b60405180910390fd5b61140481610de6565b15611444576040517f08c379a000000000000000000000000000000000000000000000000000000000815260040161143b906129b6565b60405180910390fd5b611450600083836115cd565b6001600360008473ffffffffffffffffffffffffffffffffffffffff1673ffffffffffffffffffffffffffffffffffffffff16815260200190815260200160002060008282546114a09190612784565b92505081905550816002600083815260200190815260200160002060006101000a81548173ffffffffffffffffffffffffffffffffffffffff021916908373ffffffffffffffffffffffffffffffffffffffff160217905550808273ffffffffffffffffffffffffffffffffffffffff16600073ffffffffffffffffffffffffffffffffffffffff167fddf252ad1be2c89b69c2b068fc378daa952ba7f163c4a11628f55a4df523b3ef60405160405180910390a45050565b61156282610de6565b6115a1576040517f08c379a000000000000000000000000000000000000000000000000000000000815260040161159890612a48565b60405180910390fd5b806006600084815260200190815260200160002090805190602001906115c89291906118dd565b505050565b505050565b60006115f38473ffffffffffffffffffffffffffffffffffffffff166118ca565b1561175c578373ffffffffffffffffffffffffffffffffffffffff1663150b7a0261161c610e52565b8786866040518563ffffffff1660e01b815260040161163e9493929190612abd565b602060405180830381600087803b15801561165857600080fd5b505af192505050801561168957506040513d601f19601f820116820180604052508101906116869190612b1e565b60015b61170c573d80600081146116b9576040519150601f19603f3d011682016040523d82523d6000602084013e6116be565b606091505b50600081511415611704576040517f08c379a00000000000000000000000000000000000000000000000000000000081526004016116fb9061284c565b60405180910390fd5b805181602001fd5b63150b7a0260e01b7bffffffffffffffffffffffffffffffffffffffffffffffffffffffff1916817bffffffffffffffffffffffffffffffffffffffffffffffffffffffff191614915050611761565b600190505b949350505050565b606060008214156117b1576040518060400160405280600181526020017f300000000000000000000000000000000000000000000000000000000000000081525090506118c5565b600082905060005b600082146117e35780806117cc90612b4b565b915050600a826117dc9190612bc3565b91506117b9565b60008167ffffffffffffffff8111156117ff576117fe611d55565b5b6040519080825280601f01601f1916602001820160405280156118315781602001600182028036833780820191505090505b5090505b600085146118be5760018261184a9190612750565b9150600a856118599190612bf4565b60306118659190612784565b60f81b81838151811061187b5761187a612c25565b5b60200101907effffffffffffffffffffffffffffffffffffffffffffffffffffffffffffff1916908160001a905350600a856118b79190612bc3565b9450611835565b8093505050505b919050565b600080823b905060008111915050919050565b8280546118e99061206f565b90600052602060002090601f01602090048101928261190b5760008555611952565b82601f1061192457805160ff1916838001178555611952565b82800160010185558215611952579182015b82811115611951578251825591602001919060010190611936565b5b50905061195f9190611963565b5090565b5b8082111561197c576000816000905550600101611964565b5090565b6000604051905090565b600080fd5b600080fd5b60007fffffffff0000000000000000000000000000000000000000000000000000000082169050919050565b6119c981611994565b81146119d457600080fd5b50565b6000813590506119e6816119c0565b92915050565b600060208284031215611a0257611a0161198a565b5b6000611a10848285016119d7565b91505092915050565b60008115159050919050565b611a2e81611a19565b82525050565b6000602082019050611a496000830184611a25565b92915050565b600081519050919050565b600082825260208201905092915050565b60005b83811015611a89578082015181840152602081019050611a6e565b83811115611a98576000848401525b50505050565b6000601f19601f8301169050919050565b6000611aba82611a4f565b611ac48185611a5a565b9350611ad4818560208601611a6b565b611add81611a9e565b840191505092915050565b60006020820190508181036000830152611b028184611aaf565b905092915050565b6000819050919050565b611b1d81611b0a565b8114611b2857600080fd5b50565b600081359050611b3a81611b14565b92915050565b600060208284031215611b5657611b5561198a565b5b6000611b6484828501611b2b565b91505092915050565b600073ffffffffffffffffffffffffffffffffffffffff82169050919050565b6000611b9882611b6d565b9050919050565b611ba881611b8d565b82525050565b6000602082019050611bc36000830184611b9f565b92915050565b611bd281611b8d565b8114611bdd57600080fd5b50565b600081359050611bef81611bc9565b92915050565b60008060408385031215611c0c57611c0b61198a565b5b6000611c1a85828601611be0565b9250506020611c2b85828601611b2b565b9150509250929050565b600080600060608486031215611c4e57611c4d61198a565b5b6000611c5c86828701611be0565b9350506020611c6d86828701611be0565b9250506040611c7e86828701611b2b565b9150509250925092565b600060208284031215611c9e57611c9d61198a565b5b6000611cac84828501611be0565b91505092915050565b611cbe81611b0a565b82525050565b6000602082019050611cd96000830184611cb5565b92915050565b611ce881611a19565b8114611cf357600080fd5b50565b600081359050611d0581611cdf565b92915050565b60008060408385031215611d2257611d2161198a565b5b6000611d3085828601611be0565b9250506020611d4185828601611cf6565b9150509250929050565b600080fd5b600080fd5b7f4e487b7100000000000000000000000000000000000000000000000000000000600052604160045260246000fd5b611d8d82611a9e565b810181811067ffffffffffffffff82111715611dac57611dab611d55565b5b80604052505050565b6000611dbf611980565b9050611dcb8282611d84565b919050565b600067ffffffffffffffff821115611deb57611dea611d55565b5b611df482611a9e565b9050602081019050919050565b82818337600083830152505050565b6000611e23611e1e84611dd0565b611db5565b905082815260208101848484011115611e3f57611e3e611d50565b5b611e4a848285611e01565b509392505050565b600082601f830112611e6757611e66611d4b565b5b8135611e77848260208601611e10565b91505092915050565b60008060008060808587031215611e9a57611e9961198a565b5b6000611ea887828801611be0565b9450506020611eb987828801611be0565b9350506040611eca87828801611b2b565b925050606085013567ffffffffffffffff811115611eeb57611eea61198f565b5b611ef787828801611e52565b91505092959194509250565b60008060408385031215611f1a57611f1961198a565b5b6000611f2885828601611be0565b9250506020611f3985828601611be0565b9150509250929050565b600067ffffffffffffffff821115611f5e57611f5d611d55565b5b611f6782611a9e565b9050602081019050919050565b6000611f87611f8284611f43565b611db5565b905082815260208101848484011115611fa357611fa2611d50565b5b611fae848285611e01565b509392505050565b600082601f830112611fcb57611fca611d4b565b5b8135611fdb848260208601611f74565b91505092915050565b60008060408385031215611ffb57611ffa61198a565b5b600061200985828601611be0565b925050602083013567ffffffffffffffff81111561202a5761202961198f565b5b61203685828601611fb6565b9150509250929050565b7f4e487b7100000000000000000000000000000000000000000000000000000000600052602260045260246000fd5b6000600282049050600182168061208757607f821691505b6020821081141561209b5761209a612040565b5b50919050565b7f4552433732313a20617070726f76656420717565727920666f72206e6f6e657860008201527f697374656e7420746f6b656e0000000000000000000000000000000000000000602082015250565b60006120fd602c83611a5a565b9150612108826120a1565b604082019050919050565b6000602082019050818103600083015261212c816120f0565b9050919050565b7f4552433732313a20617070726f76616c20746f2063757272656e74206f776e6560008201527f7200000000000000000000000000000000000000000000000000000000000000602082015250565b600061218f602183611a5a565b915061219a82612133565b604082019050919050565b600060208201905081810360008301526121be81612182565b9050919050565b7f4552433732313a20617070726f76652063616c6c6572206973206e6f74206f7760008201527f6e6572206e6f7220617070726f76656420666f7220616c6c0000000000000000602082015250565b6000612221603883611a5a565b915061222c826121c5565b604082019050919050565b6000602082019050818103600083015261225081612214565b9050919050565b7f4552433732313a207472616e736665722063616c6c6572206973206e6f74206f60008201527f776e6572206e6f7220617070726f766564000000000000000000000000000000602082015250565b60006122b3603183611a5a565b91506122be82612257565b604082019050919050565b600060208201905081810360008301526122e2816122a6565b9050919050565b7f4552433732313a206f776e657220717565727920666f72206e6f6e657869737460008201527f656e7420746f6b656e0000000000000000000000000000000000000000000000602082015250565b6000612345602983611a5a565b9150612350826122e9565b604082019050919050565b6000602082019050818103600083015261237481612338565b9050919050565b7f4552433732313a2062616c616e636520717565727920666f7220746865207a6560008201527f726f206164647265737300000000000000000000000000000000000000000000602082015250565b60006123d7602a83611a5a565b91506123e28261237b565b604082019050919050565b60006020820190508181036000830152612406816123ca565b9050919050565b7f4552433732313a20617070726f766520746f2063616c6c657200000000000000600082015250565b6000612443601983611a5a565b915061244e8261240d565b602082019050919050565b6000602082019050818103600083015261247281612436565b9050919050565b7f45524337323155524953746f726167653a2055524920717565727920666f722060008201527f6e6f6e6578697374656e7420746f6b656e000000000000000000000000000000602082015250565b60006124d5603183611a5a565b91506124e082612479565b604082019050919050565b60006020820190508181036000830152612504816124c8565b9050919050565b600081905092915050565b600061252182611a4f565b61252b818561250b565b935061253b818560208601611a6b565b80840191505092915050565b60006125538285612516565b915061255f8284612516565b91508190509392505050565b7f4552433732313a206f70657261746f7220717565727920666f72206e6f6e657860008201527f697374656e7420746f6b656e0000000000000000000000000000000000000000602082015250565b60006125c7602c83611a5a565b91506125d28261256b565b604082019050919050565b600060208201905081810360008301526125f6816125ba565b9050919050565b7f4552433732313a207472616e73666572206f6620746f6b656e2074686174206960008201527f73206e6f74206f776e0000000000000000000000000000000000000000000000602082015250565b6000612659602983611a5a565b9150612664826125fd565b604082019050919050565b600060208201905081810360008301526126888161264c565b9050919050565b7f4552433732313a207472616e7366657220746f20746865207a65726f2061646460008201527f7265737300000000000000000000000000000000000000000000000000000000602082015250565b60006126eb602483611a5a565b91506126f68261268f565b604082019050919050565b6000602082019050818103600083015261271a816126de565b9050919050565b7f4e487b7100000000000000000000000000000000000000000000000000000000600052601160045260246000fd5b600061275b82611b0a565b915061276683611b0a565b92508282101561277957612778612721565b5b828203905092915050565b600061278f82611b0a565b915061279a83611b0a565b9250827fffffffffffffffffffffffffffffffffffffffffffffffffffffffffffffffff038211156127cf576127ce612721565b5b828201905092915050565b7f4552433732313a207472616e7366657220746f206e6f6e20455243373231526560008201527f63656976657220696d706c656d656e7465720000000000000000000000000000602082015250565b6000612836603283611a5a565b9150612841826127da565b604082019050919050565b6000602082019050818103600083015261286581612829565b9050919050565b7f4552433732314d657461646174613a2055524920717565727920666f72206e6f60008201527f6e6578697374656e7420746f6b656e0000000000000000000000000000000000602082015250565b60006128c8602f83611a5a565b91506128d38261286c565b604082019050919050565b600060208201905081810360008301526128f7816128bb565b9050919050565b7f4552433732313a206d696e7420746f20746865207a65726f2061646472657373600082015250565b6000612934602083611a5a565b915061293f826128fe565b602082019050919050565b6000602082019050818103600083015261296381612927565b9050919050565b7f4552433732313a20746f6b656e20616c7265616479206d696e74656400000000600082015250565b60006129a0601c83611a5a565b91506129ab8261296a565b602082019050919050565b600060208201905081810360008301526129cf81612993565b9050919050565b7f45524337323155524953746f726167653a2055524920736574206f66206e6f6e60008201527f6578697374656e7420746f6b656e000000000000000000000000000000000000602082015250565b6000612a32602e83611a5a565b9150612a3d826129d6565b604082019050919050565b60006020820190508181036000830152612a6181612a25565b9050919050565b600081519050919050565b600082825260208201905092915050565b6000612a8f82612a68565b612a998185612a73565b9350612aa9818560208601611a6b565b612ab281611a9e565b840191505092915050565b6000608082019050612ad26000830187611b9f565b612adf6020830186611b9f565b612aec6040830185611cb5565b8181036060830152612afe8184612a84565b905095945050505050565b600081519050612b18816119c0565b92915050565b600060208284031215612b3457612b3361198a565b5b6000612b4284828501612b09565b91505092915050565b6000612b5682611b0a565b91507fffffffffffffffffffffffffffffffffffffffffffffffffffffffffffffffff821415612b8957612b88612721565b5b600182019050919050565b7f4e487b7100000000000000000000000000000000000000000000000000000000600052601260045260246000fd5b6000612bce82611b0a565b9150612bd983611b0a565b925082612be957612be8612b94565b5b828204905092915050565b6000612bff82611b0a565b9150612c0a83611b0a565b925082612c1a57612c19612b94565b5b828206905092915050565b7f4e487b7100000000000000000000000000000000000000000000000000000000600052603260045260246000fdfea2646970667358221220c1342297f35440589de05836baee64275b6c1d05741fe7f463306302a5214b3764736f6c63430008090033",
  "immutableReferences": {},
  "source": "// Contract based on https://docs.openzeppelin.com/contracts/4.x/erc721\r\n// SPDX-License-Identifier: MIT\r\n\r\npragma solidity ^0.8.0;\r\n\r\nimport \"@openzeppelin/contracts/token/ERC721/extensions/ERC721URIStorage.sol\";\r\nimport \"@openzeppelin/contracts/utils/Counters.sol\";\r\n\r\ncontract Picasso is ERC721URIStorage {\r\n    using Counters for Counters.Counter;\r\n    Counters.Counter private _tokenCounter;\r\n\r\n    string[] public imageUrls;\r\n    mapping(string => bool) _imageExists;\r\n\r\n    constructor() ERC721(\"Picasso\", \"PICASSO\") {\r\n\r\n    }\r\n\r\n    function mintNFT(address recipient, string memory tokenURI)\r\n    public\r\n    returns (uint256)\r\n    {\r\n        _tokenCounter.increment();\r\n        uint256 newItemId = _tokenCounter.current();\r\n\r\n        _mint(recipient, newItemId);\r\n        _setTokenURI(newItemId, tokenURI);\r\n\r\n        return newItemId;\r\n    }\r\n}",
  "sourcePath": "C:\\Users\\samno\\picasso\\src\\contracts\\Picasso.sol",
  "compiler": {
    "name": "solc",
    "version": "0.8.9+commit.e5eed63a.Emscripten.clang"
  },
  "schemaVersion": "3.4.3",
  "updatedAt": "2021-10-13T18:26:49.272Z",
  "devdoc": {
    "kind": "dev",
    "methods": {
      "approve(address,uint256)": {
        "details": "See {IERC721-approve}."
      },
      "balanceOf(address)": {
        "details": "See {IERC721-balanceOf}."
      },
      "getApproved(uint256)": {
        "details": "See {IERC721-getApproved}."
      },
      "isApprovedForAll(address,address)": {
        "details": "See {IERC721-isApprovedForAll}."
      },
      "name()": {
        "details": "See {IERC721Metadata-name}."
      },
      "ownerOf(uint256)": {
        "details": "See {IERC721-ownerOf}."
      },
      "safeTransferFrom(address,address,uint256)": {
        "details": "See {IERC721-safeTransferFrom}."
      },
      "safeTransferFrom(address,address,uint256,bytes)": {
        "details": "See {IERC721-safeTransferFrom}."
      },
      "setApprovalForAll(address,bool)": {
        "details": "See {IERC721-setApprovalForAll}."
      },
      "supportsInterface(bytes4)": {
        "details": "See {IERC165-supportsInterface}."
      },
      "symbol()": {
        "details": "See {IERC721Metadata-symbol}."
      },
      "tokenURI(uint256)": {
        "details": "See {IERC721Metadata-tokenURI}."
      },
      "transferFrom(address,address,uint256)": {
        "details": "See {IERC721-transferFrom}."
      }
    },
    "version": 1
  },
  "userdoc": {
    "kind": "user",
    "methods": {},
    "version": 1
  }
}